:100000000EC01BC01AC019C018C017C016C015C03A
:1000100014C013C012C011C010C072C00EC0112491
:100020001FBECFEDCDBF20E0A0E6B0E001C01D9225
:10003000A038B207E1F71AD158C1E2CFA4E0B0E08E
:10004000E3E2F0E035C11C821B822B813C81281742
:100050003907ACF41A82198229813A812233310599
:100060003CF429813A812F5F3F4F3A832983F4CFB3
:100070002B813C812F5F3F4F3C832B83E6CF24961F
:10008000E2E02DC16130710541F497B301C0660F04
:100090008A95EAF7692B67BB089547B321E030E002
:1000A000B90102C0660F771F8A95E2F7CB018095F0
:1000B000842387BB08956130710541F498B301C072
:1000C000660F8A95EAF7692B68BB089548B321E06B
:1000D00030E0B90102C0660F771F8A95E2F7CB01C5
:1000E0008095842388BB089510926A0080936B00EA
:1000F00087B38A7F87BB88EA8DB980EF8EB9089570
:100100001F920F920FB60F9211248F9380EF8EB92A
:1001100010926100B898B29B02C0B09BFCCFB0991E
:100120000AC080EF8EB910926C00B898B29B07C0DD
:10013000B09BFCCF04C088EA8DB980E78EB98F915F
:100140000F900FBE0F901F90189590916A0081E05C
:10015000983008F080E008951F920F920FB60F922A
:1001600011242F933F938F939F93EF93FF9380914D
:100170006D0090916E008230910561F128F4009736
:1001800059F00197B1F167C084309105D9F158F168
:10019000059709F440C05FC08FB1869590E020912B
:1001A0006B00022E000C330B82179307F9F4789B37
:1001B0000AC080916A00883018F482E090E005C09F
:1001C00083E090E002C084E090E090936E00809322
:1001D0006D0041C0C09883E090E090936E008093E2
:1001E0006D00B89836C08FB1882319F088EA8DB9B0
:1001F00010C082E090E090936E0080936D00B89AFA
:10020000C09A07C085E090E090936E0080936D00E7
:10021000B89880E71FC084E090E090936E008093D0
:100220006D0080916000811107C08FB180936100E3
:1002300081E0809360000BC0E0916100E9303CF404
:100240000E2E000CFF0B8FB1EE59FF4F80831FB8AD
:10025000B89A8EE78EB9FF91EF919F918F913F9160
:100260002F910F900FBE0F901F90189582E43CDFE6
:100270007894BC9AC49A809162008F5F80936200E8
:1002800084EF91E0DBDEC4988AEF90E0D7DEF2CF16
:100290002F923F924F925F926F927F928F929F9296
:1002A000AF92BF92CF92DF92EF92FF920F931F9384
:1002B000CF93DF93CDB7CA1BCDBFDD2709942A8822
:1002C000398848885F846E847D848C849B84AA846A
:1002D000B984C884DF80EE80FD800C811B81AA81F7
:0E02E000D981CE0FCDBFCA2F0895F894FFCF5D
:00000001FF
