:100000000EC01BC01AC019C018C017C016C015C03A
:1000100014C013C012C011C010C00FC00EC01124F4
:100020001FBECFEDCDBF20E0A0E6B0E001C01D9225
:10003000A336B207E1F73FD041C0E2CF813311F4DC
:10004000C19A0895803309F4C1980895809360009F
:1000500087B38A7F87BB88EA8DB980EF8EB9089510
:1000600082E190E0F3DFB99A08951F920F920FB6E4
:100070000F9211242F933F934F935F936F937F932E
:100080008F939F93AF93BF93EF93FF938FB1D6DF7F
:1000900080EF8EB9FF91EF91BF91AF919F918F91BA
:1000A0007F916F915F914F913F912F910F900FBE74
:1000B0000F901F9018957894D3DFFFCFF894FFCF5F
:00000001FF
